:020000020000FC
:100000000C943E0091BB0000169A00000000000016
:100010001698000000000000089591BB179A000098
:1000200000000000169A0000000000001698000072
:1000300000000000179808959F93992790BB91BBEB
:10004000159A0000169A0000000000009FB1169853
:1000500097FDF7CF15989FEF90BB9F9108958F93D1
:100060009F939FE08CE90197F1F79F918F910895FD
:10007000F6DFF5DFF4DFF3DFF2DF089540EF4093C2
:100080000A014FEF47B9442748B94FEF40BB41B988
:10009000442741BB42B98827662798E3B3DFCCDF0A
:1000A000E7DF98E3AFDFC8DFDADF98E3ABDFC4DF79
:1000B00098E3A8DFC1DF98E0A5DFBEDF91E0A2DF13
:1000C000BBDF96E09FDFB8DF9FE09CDFB5DF3FEE50
:1000D00011271430E1F330930B014FEF4A95F1F7FC
:1000E000409109014F704F3059F021E00027043052
:1000F00039F0542F522341F00395220F0C947700CE
:10010000330F13950C9469007FEF7A95772311F0E4
:10011000A6DFFBCF0000133069F0033039F0402F29
:10012000440F400F410F43950C9457010C942A0142
:100130000C940901023021F00330D1F30C947A01C0
:100140004FEF2426222041F190EC5CDF75DF562F23
:10015000552466247724543620F45A3028F4752E1A
:1001600006C054565394F7CF5A506394F6CF00000C
:1001700040ED541A40ED641A40ED741A40E3942F98
:100180004CDF5ADF952D49DF57DF962D46DF54DFD0
:10019000972D43DF51DF9BCF90EC34DF4DDF562F9F
:1001A0004427503108F403C050514395FACF000062
:1001B000452E542F4427503108F403C05051439525
:1001C000FACF0000352E4AE0341618F440ED341A08
:1001D00004C04AE0341A4FEB341A00004AE04416D7
:1001E00018F440ED441A04C04AE0441A4FEB441A94
:1001F000000040E3942F11DF1FDF48E7942F0DDF4D
:100200001BDF932D0ADF18DF942D07DF15DF0C9419
:100210007A014DE3942F01DF0FDF680F112418F0EE
:10022000112009F412C05EEF58B97FEF7A95772359
:1002300011F015DFFBCF00007FEF7A95772311F0E7
:100240000EDFFBCF000050E058B9000090ECDADE82
:10025000F3DE7ACF103019F14427113041F1689F55
:10026000602D18F0112009F412C05EEF58B97FEF2D
:100270007A95772311F0F3DEFBCF00007FEF7A95BC
:10028000772311F0ECDEFBCF000050E058B90000FE
:1002900088274BE2942FC1DECFDE0C947A01682FC1
:1002A00088274AE2942FB9DEC7DE0C947A015AE01F
:1002B000859F802D841F18F0112009F412C05EEF75
:1002C00058B97FEF7A95772311F0C9DEFBCF000094
:1002D0007FEF7A95772311F0C2DEFBCF000050E06C
:1002E00058B9000000C00000405D942F96DEA4DEE7
:0802F0000C947A010C946700E4
:00000001FF
