:020000020000FC
:100000000C943E0091BB0000169A00000000000016
:100010001698000000000000089591BB179A000098
:1000200000000000169A0000000000001698000072
:1000300000000000179808959F93992790BB91BBEB
:10004000159A0000169A0000000000009FB1169853
:1000500097FDF7CF15989FEF90BB9F9108958F93D1
:100060009F939FE08CE90197F1F79F918F910895FD
:10007000F6DFF5DFF4DFF3DFF2DF089540EF4093C2
:100080000A014FEF47B9442748B94FEF40BB41B988
:10009000442741BB42B98827662798E3B3DFCCDF0A
:1000A000E7DF98E3AFDFC8DFDADF98E3ABDFC4DF79
:1000B00098E3A8DFC1DF98E0A5DFBEDF91E0A2DF13
:1000C000BBDF96E09FDFB8DF9FE09CDFB5DF4FEF3F
:1000D000242E3FEE11271430E1F330930B014FEF44
:1000E0004A95F1F7409109014F704F3059F021E0E6
:1000F0000027043039F0542F522341F00395220F8A
:100100000C947900330F13950C946B007FEF7A9564
:10011000772311F0A4DFFBCF0000133069F0033028
:1001200039F0402F440F400F410F43950C945C0170
:100130000C942F010C940E01023021F00330D1F306
:100140000C947F014FEF2426222059F190EC5ADFC6
:1001500073DF562F552466247724543620F45A3002
:1001600028F4752E06C054565394F7CF5A50639412
:10017000F6CF000040ED541A40ED641A40ED741AB9
:10018000952D4BDF59DF962D48DF56DF972D45DF44
:1001900053DF40E2942F41DF4FDF90E133DF4CDF4C
:1001A00098CF90EC2FDF48DF562F4427503108F4CA
:1001B00003C050514395FACF0000452E542F4427D9
:1001C000503108F403C050514395FACF0000352E4A
:1001D0004AE0341618F440ED341A04C04AE0341AE8
:1001E0004FEB341A00004AE0441618F440ED441A6C
:1001F00004C04AE0441A4FEB441A000040E3942F35
:100200000CDF1ADF48E7942F08DF16DF932D05DF98
:1002100013DF942D02DF10DF0C947F014DE3942F48
:10022000FCDE0ADF680F112418F0112009F412C057
:100230005EEF58B97FEF7A95772311F010DFFBCF8F
:1002400000007FEF7A95772311F009DFFBCF0000E4
:1002500050E058B9000090ECD5DEEEDE77CF1030DC
:1002600019F14427113041F1689F602D18F01120D9
:1002700009F412C05EEF58B97FEF7A95772311F039
:10028000EEDEFBCF00007FEF7A95772311F0E7DEFB
:10029000FBCF000050E058B9000088274BE2942FB4
:1002A000BCDECADE0C947F01682F88274AE2942FB7
:1002B000B4DEC2DE0C947F015AE0859F802D841F3E
:1002C00018F0112009F412C05EEF58B97FEF7A954B
:1002D000772311F0C4DEFBCF00007FEF7A95772300
:1002E00011F0BDDEFBCF000050E058B9000000C0A7
:1002F0000000405D942F91DE9FDE0C947F010C94F2
:02030000690092
:00000001FF
