:020000020000FC
:1000000001E0202E04E0302E00E1402E20E00FC061
:100010008F939F939FE08CE90197F1F79F918F91C8
:100020000895F6DFF5DFF4DFF3DFF2DF08951FEF69
:1000300017B911271AB91FEF1BB9002708B921E01A
:1000400000C04FEF3AE0E4DF49993395499B3A9578
:10005000332319F0343139F0F6CFDADF499933958B
:10006000343119F0FACF4FEF02C0442700C000002E
:10007000442311F00C941700002708B928B85FEF4B
:10008000D0DF5A95552311F00C94400000004FEF3B
:100090003AE0BEDF48993395489B3A95332319F0EF
:1000A000343139F0F6CFB4DF48993395343119F053
:1000B000FACF4FEF02C0442700C0000041FF0C946C
:1000C0001D004FEF3AE0A4DF49993395499B3A95DB
:1000D000332319F0343139F0F6CF9ADF499933954B
:1000E000343119F0FACF4FEF02C0442700C00000AE
:1000F000442309F0CCCF38B85FEF93DF5A955523EE
:1001000011F00C947D0000004FEF3AE081DF489938
:100110003395489B3A95332319F0343139F0F6CFB3
:1001200077DF48993395343119F0FACF4FEF02C099
:10013000442700C0000041FF0C941D004FEF3AE03F
:1001400067DF49993395499B3A95332319F0343148
:1001500039F0F6CF5DDF49993395343119F0FACF94
:100160004FEF02C0442700C00000442319F0CCCF59
:100170000C94170048B85FEF54DF5A95552311F0DF
:100180000C94BC0000004FEF3AE042DF48993395F1
:10019000489B3A95332319F0343139F0F6CF38DFE4
:1001A00048993395343119F0FACF4FEF02C0442704
:1001B00000C0000041FF0C941D004FEF3AE028DF23
:1001C00049993395499B3A95332319F0343139F0E5
:1001D000F6CF1EDF49993395343119F0FACF4FEF3E
:1001E00002C0442700C00000442319F0CCCF0C9477
:1001F00017004FEF3AE00CDF48993395489B3A954A
:10020000332319F0343139F0F6CF02DF48993395B2
:10021000343119F0FACF4FEF02C0442700C000007C
:1002200041FF0C941D0028B85FEFFBDE5A95552363
:1002300011F00C94150100004FEF3AE0E9DE489907
:100240003395489B3A95332319F0343139F0F6CF82
:10025000DFDE48993395343119F0FACF4FEF02C001
:10026000442700C0000041FF0C941D0038B85FEF28
:10027000D8DE5A95552311F00C94380100004FEF49
:100280003AE0C6DE48993395489B3A95332319F0F6
:10029000343139F0F6CFBCDE48993395343119F05A
:1002A000FACF4FEF02C0442700C0000041FF0C947A
:1002B0001D0048B85FEFB5DE5A95552311F00C9438
:0E02C0005B0100000C94F9000C941700FFCFB6
:00000001FF
