:020000020000FC
:100000000C946C000C94A2000C94A2000C94A2001E
:100010000C94A2000C94A2000C94A2000C94A200D8
:040020000C94A2009A
:10005C000C94A90041BB0000169A0000000000009F
:10006C001698000000000000089541BB179A00008C
:10007C0000000000169A0000000000001698000016
:10008C0000000000179808954F93442740BB41BBD4
:10009C00159A0000169A0000000000004FB1169847
:1000AC0047FDF7CF15984FEF40BB4F9108958F93B5
:1000BC009F939FE08CE90197F1F79F918F910895A1
:1000CC00F6DFF5DFF4DFF3DFF2DF08956627332781
:1000DC0022270FEF00BB01B9002701BB02B948E38F
:1000EC00B9DFD2DFEDDF48E3B5DFCEDFE0DF48E399
:1000FC00B1DFCADF48E3AEDFC7DF48E0ABDFC4DF08
:10010C0041E0A8DFC1DF46E0A5DFBEDF4FE0A2DFA4
:10011C00BBDF0AEA009369000AEA00936A000FEF5A
:10012C000DBB7894002704BD05E005BD01E00093EC
:10013C006E0078940C94E1006395643009F002C071
:10014C0033956627189523952D3311F40C94B00034
:10015C000C94DF0041E07EDF97DF332444245524E8
:10016C00343620F43A3028F4532E06C034563394E7
:10017C00F7CF3A504394F6CF00E3300E400E500EBA
:10018C000000432D72DF80DF442D6FDF7DDF452DB6
:10019C006CDF7ADF02E7402F68DF76DF00E7402F65
:1001AC0064DF72DF03E7402F60DF6EDF3327222727
:0A01BC0001C000C018950000FECF3E
:00000001FF
